:1000000002026C0201EC7523FF7524FF7525FF7554
:1000100026FF75800075A0FF20A002800280067573
:10002000250075260120A102800280067525007535
:10003000260220A202800280067525007526032074
:10004000A3028002800675250075260475A0007540
:1000500080FF208002800280067523007524012025
:1000600081028002800675230075240220820280AE
:100070000280067523007524032083028002800617
:10008000752300752404E526B40107E525B40002B4
:100090008002804CE524B40107E523B4000280020D
:1000A00080057B310201EBE524B40207E523B400AF
:1000B00002800280057B340201EBE524B40307E5EE
:1000C00023B40002800280057B370201EBE524B4F3
:1000D0000407E523B40002800280057B2A0201EBBD
:1000E000E526B40207E525B400028002804CE52431
:1000F000B40107E523B40002800280057B320201CF
:10010000EBE524B40207E523B40002800280057BFE
:10011000350201EBE524B40307E523B400028002B5
:1001200080057B380201EBE524B40407E523B40025
:1001300002800280057B300201EBE526B40307E56F
:1001400025B4000280028049E524B40107E523B408
:100150000002800280057B330201EBE524B4020734
:10016000E523B40002800280047B36807EE524B45F
:100170000307E523B40002800280047B39806CE52C
:1001800024B40407E523B40002800280047B2380AA
:100190005AE526B40407E525B4000280028048E54C
:1001A00024B40107E523B40002800280047B41806F
:1001B0003AE524B40207E523B40002800280047B00
:1001C000428028E524B40307E523B40002800280BE
:1001D000047B438016E524B40407E523B4000280C1
:1001E0000280047B4480047B208000220200068081
:1001F0000BC2B2D2B18D90D2B0C2B02280F3800BCC
:10020000C2B2C2B18D90D2B0C2B02280F380471288
:100210000003EBF522E52224E0600280028034AD89
:10022000221201EFE4F520F521E5212438E52064D0
:1002300080347F50028002800280180521E5217001
:10024000020520E5212438E5206480347F500280B7
:100250000280E880BA2280B7E4F5D0758127782043
:0F0260007A07F608DAFC12020D020000020258BB
:00000001FF
