:100000000200F20200AE7520007521007522017811
:100010000179007A007B237D0B7C001200C7792DCB
:10002000879075B00075200080367423A920780071
:1000300029F987A0752100E52124CE500280028095
:1000400002800E80000521E52124CE50028002802E
:10005000F20520E52024F65002800280037520007E
:1000600030B002800280C3803A7423A9207800292E
:10007000F987A0752100E52124CE5002800280027C
:10008000800E80000521E52124CE5002800280F2FE
:1000900074022520F520E52024F65002800280031A
:1000A00075200120B002800280BF020028220200D9
:1000B00006898288838B00EC4D6036E4E0F608A365
:1000C0001DBDFFF31C80F0B800118B00EC4D6021CA
:1000D000E7F609081DBDFFF41C80F1898288838B37
:1000E00000EC4D600CE493F608A31DBDFFF31C80EB
:0500F000F02202010BEB
:10010000C0F9A4B0999282F88090FFE4F5D075818F
:0F0110002E78207A0EF608DAFC120003020000A7
:00000001FF
