:1000000002008AE5836003E49322A882E622E58366
:100010006004E4938003A882E6F822E5836004E4A8
:10002000938003A882E6F922E5836004E4938003C9
:10003000A882E6FA22E5836004E4938003A882E6BE
:10004000FB22E5836004E4938003A882E6FC22E5BA
:10005000836004E4938003A882E6FD22E5836004C4
:10006000E4938003A882E6FE22E5836004E49380A3
:1000700003A882E6FF22E4F5D075812C78207A0C63
:0D008000F608DAFC12012A020000020076E8
:10010000233131312F2C20233233322F2C20233234
:1001100032342F2C20233232302F00202020202078
:1001200020202048656C6C6F210002026FE4F522EC
:10013000F523E4F524F525E4F526F5277528017562
:10014000291B752A01752B0075803875A00175A0D3
:100150000075808075A00175A000E4F520F521E50B
:100160002124F2E52034FF500280028002802DE538
:10017000212529F582E5203528F583120003F58035
:1001800075A00375A0020521E52170020520E52177
:1001900024F2E52034FF5002800280D37580C075C0
:1001A000A00175A00075200075210F8029A822A943
:1001B00023E9C333F9E833F8E9252BF582E8352A3A
:1001C000F583A3120003F58075A00375A002052333
:1001D000E52370020522E520B52207E521B52302BB
:1001E00080065002800280C5E521C39527F523E5EE
:1001F000209526F522804AE526B52407E527B52572
:100200000280045004800080380525E52570020531
:1002100024A824A925E9C333F9E833F8E9252BF903
:10022000E8352AF8E924FFF582E834FFF583120067
:1002300003F58075A00375A0020523E52370020570
:1002400022E52324F1E52234FF5002800280A8E455
:10025000F524F5257580C075A00175A0000527E57A
:1002600027700205268526228527230201AB22025C
:02027000012D5E
:00000001FF
