:100000000200F5804CE4F52DF52E8C2F8D308020EC
:10001000758C00758A00D28C8000E58C243D5002DE
:10002000800280F6C28CC28D052EE52E7002052D51
:100030007C007D14AA2FAB301200C3C3E52E9B8A2F
:10004000F063F080E52D648095F04002800280C06E
:100050002280B2806C758901752202752304752493
:100060002075254075268175271875280175290189
:10007000752A02752B02752C05E4F520F521E52182
:1000800024FAE5206480347F500280028002802BB5
:1000900074222521F9879074282521F9E7FD7C0039
:1000A0001200030521E52170020520E52124FAE56F
:1000B000206480347F5002800280D575900080FEDD
:1000C000228092C000C001ED8BF0A4F8A9F0ED8A67
:1000D000F0A429F9EC8BF0A429FAE8FBD001D000B8
:1000E00022E4F5D075813178207A11F608DAFC1215
:0800F00000530200000200E1D0
:00000001FF
